{
  "contractName": "CreateEvent",
  "abi": [
    {
      "anonymous": false,
      "inputs": [
        {
          "indexed": true,
          "internalType": "string",
          "name": "name",
          "type": "string"
        },
        {
          "indexed": false,
          "internalType": "uint256",
          "name": "amountOfTickets",
          "type": "uint256"
        },
        {
          "indexed": false,
          "internalType": "uint256",
          "name": "costPerTicket",
          "type": "uint256"
        }
      ],
      "name": "EventCreated",
      "type": "event"
    },
    {
      "inputs": [
        {
          "internalType": "string",
          "name": "_name",
          "type": "string"
        },
        {
          "internalType": "string",
          "name": "_uri",
          "type": "string"
        },
        {
          "internalType": "uint256",
          "name": "_amountTickets",
          "type": "uint256"
        },
        {
          "internalType": "uint256",
          "name": "_costPerTicket",
          "type": "uint256"
        }
      ],
      "name": "create",
      "outputs": [],
      "stateMutability": "nonpayable",
      "type": "function"
    }
  ],
  "bytecode": "0x608060405234801561001057600080fd5b5061435f806100206000396000f3fe60806040523480156200001157600080fd5b50600436106200002e5760003560e01c8063a20d99fc1462000033575b600080fd5b6200005160048036038101906200004b9190620002ab565b62000053565b005b838383836040516200006590620000ec565b620000749493929190620003ff565b604051809103906000f08015801562000091573d6000803e3d6000fd5b505083604051620000a391906200049c565b60405180910390207fef361a1e306446b9c7b03355ef7fbc9ea7cbdc417a1fd436d496c6d5523a48db8383604051620000de929190620004b5565b60405180910390a250505050565b613e4780620004e383390190565b6000604051905090565b600080fd5b600080fd5b600080fd5b600080fd5b6000601f19601f8301169050919050565b7f4e487b7100000000000000000000000000000000000000000000000000000000600052604160045260246000fd5b620001638262000118565b810181811067ffffffffffffffff8211171562000185576200018462000129565b5b80604052505050565b60006200019a620000fa565b9050620001a8828262000158565b919050565b600067ffffffffffffffff821115620001cb57620001ca62000129565b5b620001d68262000118565b9050602081019050919050565b82818337600083830152505050565b6000620002096200020384620001ad565b6200018e565b90508281526020810184848401111562000228576200022762000113565b5b62000235848285620001e3565b509392505050565b600082601f8301126200025557620002546200010e565b5b813562000267848260208601620001f2565b91505092915050565b6000819050919050565b620002858162000270565b81146200029157600080fd5b50565b600081359050620002a5816200027a565b92915050565b60008060008060808587031215620002c857620002c762000104565b5b600085013567ffffffffffffffff811115620002e957620002e862000109565b5b620002f7878288016200023d565b945050602085013567ffffffffffffffff8111156200031b576200031a62000109565b5b62000329878288016200023d565b93505060406200033c8782880162000294565b92505060606200034f8782880162000294565b91505092959194509250565b600081519050919050565b600082825260208201905092915050565b60005b83811015620003975780820151818401526020810190506200037a565b83811115620003a7576000848401525b50505050565b6000620003ba826200035b565b620003c6818562000366565b9350620003d881856020860162000377565b620003e38162000118565b840191505092915050565b620003f98162000270565b82525050565b600060808201905081810360008301526200041b8187620003ad565b90508181036020830152620004318186620003ad565b9050620004426040830185620003ee565b620004516060830184620003ee565b95945050505050565b600081905092915050565b600062000472826200035b565b6200047e81856200045a565b93506200049081856020860162000377565b80840191505092915050565b6000620004aa828462000465565b915081905092915050565b6000604082019050620004cc6000830185620003ee565b620004db6020830184620003ee565b939250505056fe60806040523480156200001157600080fd5b5060405162003e4738038062003e4783398181016040528101906200003791906200043e565b82620000586200004c620000ce60201b60201c565b620000d660201b60201c565b60008060146101000a81548160ff02191690831515021790555062000083816200019a60201b60201c565b5082600690805190602001906200009c929190620001b6565b5081600881905550806009819055508360079080519060200190620000c3929190620001b6565b505050505062000553565b600033905090565b60008060009054906101000a900473ffffffffffffffffffffffffffffffffffffffff169050816000806101000a81548173ffffffffffffffffffffffffffffffffffffffff021916908373ffffffffffffffffffffffffffffffffffffffff1602179055508173ffffffffffffffffffffffffffffffffffffffff168173ffffffffffffffffffffffffffffffffffffffff167f8be0079c531659141344cd1fd0a4f28419497f9722a3daafe3b4186f6b6457e060405160405180910390a35050565b8060039080519060200190620001b2929190620001b6565b5050565b828054620001c4906200051d565b90600052602060002090601f016020900481019282620001e8576000855562000234565b82601f106200020357805160ff191683800117855562000234565b8280016001018555821562000234579182015b828111156200023357825182559160200191906001019062000216565b5b50905062000243919062000247565b5090565b5b808211156200026257600081600090555060010162000248565b5090565b6000604051905090565b600080fd5b600080fd5b600080fd5b600080fd5b6000601f19601f8301169050919050565b7f4e487b7100000000000000000000000000000000000000000000000000000000600052604160045260246000fd5b620002cf8262000284565b810181811067ffffffffffffffff82111715620002f157620002f062000295565b5b80604052505050565b60006200030662000266565b9050620003148282620002c4565b919050565b600067ffffffffffffffff82111562000337576200033662000295565b5b620003428262000284565b9050602081019050919050565b60005b838110156200036f57808201518184015260208101905062000352565b838111156200037f576000848401525b50505050565b60006200039c620003968462000319565b620002fa565b905082815260208101848484011115620003bb57620003ba6200027f565b5b620003c88482856200034f565b509392505050565b600082601f830112620003e857620003e76200027a565b5b8151620003fa84826020860162000385565b91505092915050565b6000819050919050565b620004188162000403565b81146200042457600080fd5b50565b60008151905062000438816200040d565b92915050565b600080600080608085870312156200045b576200045a62000270565b5b600085015167ffffffffffffffff8111156200047c576200047b62000275565b5b6200048a87828801620003d0565b945050602085015167ffffffffffffffff811115620004ae57620004ad62000275565b5b620004bc87828801620003d0565b9350506040620004cf8782880162000427565b9250506060620004e28782880162000427565b91505092959194509250565b7f4e487b7100000000000000000000000000000000000000000000000000000000600052602260045260246000fd5b600060028204905060018216806200053657607f821691505b602082108114156200054d576200054c620004ee565b5b50919050565b6138e480620005636000396000f3fe60806040526004361061011e5760003560e01c8063715018a6116100a0578063bd85b03911610064578063bd85b039146103a1578063e985e9c5146103de578063f242432a1461041b578063f2fde38b14610444578063fb2f1ffb1461046d5761011e565b8063715018a6146102f45780638456cb591461030b5780638da5cb5b14610322578063a22cb4651461034d578063a35a3436146103765761011e565b80633ccfd60b116100e75780633ccfd60b1461022e5780633f4ba83a146102385780634e1273f41461024f5780634f558e791461028c5780635c975abb146102c95761011e565b8062fdd58e1461012357806301ffc9a71461016057806306fdde031461019d5780630e89341c146101c85780632eb2c2d614610205575b600080fd5b34801561012f57600080fd5b5061014a60048036038101906101459190612139565b610489565b6040516101579190612188565b60405180910390f35b34801561016c57600080fd5b50610187600480360381019061018291906121fb565b610553565b6040516101949190612243565b60405180910390f35b3480156101a957600080fd5b506101b2610635565b6040516101bf91906122f7565b60405180910390f35b3480156101d457600080fd5b506101ef60048036038101906101ea9190612319565b6106c7565b6040516101fc91906122f7565b60405180910390f35b34801561021157600080fd5b5061022c60048036038101906102279190612543565b61075b565b005b6102366107fc565b005b34801561024457600080fd5b5061024d61087d565b005b34801561025b57600080fd5b50610276600480360381019061027191906126d5565b61088f565b604051610283919061280b565b60405180910390f35b34801561029857600080fd5b506102b360048036038101906102ae9190612319565b6109a8565b6040516102c09190612243565b60405180910390f35b3480156102d557600080fd5b506102de6109bc565b6040516102eb9190612243565b60405180910390f35b34801561030057600080fd5b506103096109d2565b005b34801561031757600080fd5b506103206109e6565b005b34801561032e57600080fd5b506103376109f8565b604051610344919061283c565b60405180910390f35b34801561035957600080fd5b50610374600480360381019061036f9190612883565b610a21565b005b34801561038257600080fd5b5061038b610a37565b6040516103989190612188565b60405180910390f35b3480156103ad57600080fd5b506103c860048036038101906103c39190612319565b610a48565b6040516103d59190612188565b60405180910390f35b3480156103ea57600080fd5b50610405600480360381019061040091906128c3565b610a65565b6040516104129190612243565b60405180910390f35b34801561042757600080fd5b50610442600480360381019061043d9190612903565b610af9565b005b34801561045057600080fd5b5061046b6004803603810190610466919061299a565b610b9a565b005b61048760048036038101906104829190612a00565b610c1e565b005b60008073ffffffffffffffffffffffffffffffffffffffff168373ffffffffffffffffffffffffffffffffffffffff1614156104fa576040517f08c379a00000000000000000000000000000000000000000000000000000000081526004016104f190612ab2565b60405180910390fd5b6001600083815260200190815260200160002060008473ffffffffffffffffffffffffffffffffffffffff1673ffffffffffffffffffffffffffffffffffffffff16815260200190815260200160002054905092915050565b60007fd9b67a26000000000000000000000000000000000000000000000000000000007bffffffffffffffffffffffffffffffffffffffffffffffffffffffff1916827bffffffffffffffffffffffffffffffffffffffffffffffffffffffff1916148061061e57507f0e89341c000000000000000000000000000000000000000000000000000000007bffffffffffffffffffffffffffffffffffffffffffffffffffffffff1916827bffffffffffffffffffffffffffffffffffffffffffffffffffffffff1916145b8061062e575061062d82610e39565b5b9050919050565b60606007805461064490612b01565b80601f016020809104026020016040519081016040528092919081815260200182805461067090612b01565b80156106bd5780601f10610692576101008083540402835291602001916106bd565b820191906000526020600020905b8154815290600101906020018083116106a057829003601f168201915b5050505050905090565b6060600380546106d690612b01565b80601f016020809104026020016040519081016040528092919081815260200182805461070290612b01565b801561074f5780601f106107245761010080835404028352916020019161074f565b820191906000526020600020905b81548152906001019060200180831161073257829003601f168201915b50505050509050919050565b610763610ea3565b73ffffffffffffffffffffffffffffffffffffffff168573ffffffffffffffffffffffffffffffffffffffff1614806107a957506107a8856107a3610ea3565b610a65565b5b6107e8576040517f08c379a00000000000000000000000000000000000000000000000000000000081526004016107df90612ba5565b60405180910390fd5b6107f58585858585610eab565b5050505050565b6108046111d0565b60003373ffffffffffffffffffffffffffffffffffffffff164760405161082a90612bf6565b60006040518083038185875af1925050503d8060008114610867576040519150601f19603f3d011682016040523d82523d6000602084013e61086c565b606091505b505090508061087a57600080fd5b50565b6108856111d0565b61088d61124e565b565b606081518351146108d5576040517f08c379a00000000000000000000000000000000000000000000000000000000081526004016108cc90612c7d565b60405180910390fd5b6000835167ffffffffffffffff8111156108f2576108f161234b565b5b6040519080825280602002602001820160405280156109205781602001602082028036833780820191505090505b50905060005b845181101561099d5761096d85828151811061094557610944612c9d565b5b60200260200101518583815181106109605761095f612c9d565b5b6020026020010151610489565b8282815181106109805761097f612c9d565b5b6020026020010181815250508061099690612cfb565b9050610926565b508091505092915050565b6000806109b483610a48565b119050919050565b60008060149054906101000a900460ff16905090565b6109da6111d0565b6109e460006112b0565b565b6109ee6111d0565b6109f6611374565b565b60008060009054906101000a900473ffffffffffffffffffffffffffffffffffffffff16905090565b610a33610a2c610ea3565b83836113d7565b5050565b6000610a436005611544565b905090565b600060046000838152602001908152602001600020549050919050565b6000600260008473ffffffffffffffffffffffffffffffffffffffff1673ffffffffffffffffffffffffffffffffffffffff16815260200190815260200160002060008373ffffffffffffffffffffffffffffffffffffffff1673ffffffffffffffffffffffffffffffffffffffff16815260200190815260200160002060009054906101000a900460ff16905092915050565b610b01610ea3565b73ffffffffffffffffffffffffffffffffffffffff168573ffffffffffffffffffffffffffffffffffffffff161480610b475750610b4685610b41610ea3565b610a65565b5b610b86576040517f08c379a0000000000000000000000000000000000000000000000000000000008152600401610b7d90612ba5565b60405180910390fd5b610b938585858585611552565b5050505050565b610ba26111d0565b600073ffffffffffffffffffffffffffffffffffffffff168173ffffffffffffffffffffffffffffffffffffffff161415610c12576040517f08c379a0000000000000000000000000000000000000000000000000000000008152600401610c0990612db6565b60405180910390fd5b610c1b816112b0565b50565b60008211610c61576040517f08c379a0000000000000000000000000000000000000000000000000000000008152600401610c5890612e48565b60405180910390fd5b6003821115610ca5576040517f08c379a0000000000000000000000000000000000000000000000000000000008152600401610c9c90612eb4565b60405180910390fd5b600082610cb26005611544565b610cbc9190612ed4565b9050600854811115610d03576040517f08c379a0000000000000000000000000000000000000000000000000000000008152600401610cfa90612f76565b60405180910390fd5b6003610d12338460ff16610489565b84610d1d9190612ed4565b10610d5d576040517f08c379a0000000000000000000000000000000000000000000000000000000008152600401610d5490612fe2565b60405180910390fd5b82600954610d6b9190613002565b341015610d7757600080fd5b60005b83811015610d9f57610d8c60056117f1565b8080610d9790612cfb565b915050610d7a565b50610de2336000856040518060400160405280600181526020017f2000000000000000000000000000000000000000000000000000000000000000815250611807565b3373ffffffffffffffffffffffffffffffffffffffff168260ff167f4e3883c75cc9c752bb1db2e406a822e4a75067ae77ad9a0a4d179f2709b9e1f685604051610e2c9190612188565b60405180910390a3505050565b60007f01ffc9a7000000000000000000000000000000000000000000000000000000007bffffffffffffffffffffffffffffffffffffffffffffffffffffffff1916827bffffffffffffffffffffffffffffffffffffffffffffffffffffffff1916149050919050565b600033905090565b8151835114610eef576040517f08c379a0000000000000000000000000000000000000000000000000000000008152600401610ee6906130ce565b60405180910390fd5b600073ffffffffffffffffffffffffffffffffffffffff168473ffffffffffffffffffffffffffffffffffffffff161415610f5f576040517f08c379a0000000000000000000000000000000000000000000000000000000008152600401610f5690613160565b60405180910390fd5b6000610f69610ea3565b9050610f798187878787876119b9565b60005b845181101561112d576000858281518110610f9a57610f99612c9d565b5b602002602001015190506000858381518110610fb957610fb8612c9d565b5b6020026020010151905060006001600084815260200190815260200160002060008b73ffffffffffffffffffffffffffffffffffffffff1673ffffffffffffffffffffffffffffffffffffffff1681526020019081526020016000205490508181101561105b576040517f08c379a0000000000000000000000000000000000000000000000000000000008152600401611052906131f2565b60405180910390fd5b8181036001600085815260200190815260200160002060008c73ffffffffffffffffffffffffffffffffffffffff1673ffffffffffffffffffffffffffffffffffffffff16815260200190815260200160002081905550816001600085815260200190815260200160002060008b73ffffffffffffffffffffffffffffffffffffffff1673ffffffffffffffffffffffffffffffffffffffff16815260200190815260200160002060008282546111129190612ed4565b925050819055505050508061112690612cfb565b9050610f7c565b508473ffffffffffffffffffffffffffffffffffffffff168673ffffffffffffffffffffffffffffffffffffffff168273ffffffffffffffffffffffffffffffffffffffff167f4a39dc06d4c0dbc64b70af90fd698a233a518aa5d07e595d983b8c0526c8f7fb87876040516111a4929190613212565b60405180910390a46111ba8187878787876119cf565b6111c88187878787876119d7565b505050505050565b6111d8610ea3565b73ffffffffffffffffffffffffffffffffffffffff166111f66109f8565b73ffffffffffffffffffffffffffffffffffffffff161461124c576040517f08c379a000000000000000000000000000000000000000000000000000000000815260040161124390613295565b60405180910390fd5b565b611256611baf565b60008060146101000a81548160ff0219169083151502179055507f5db9ee0a495bf2e6ff9c91a7834c1ba4fdd244a5e8aa4e537bd38aeae4b073aa611299610ea3565b6040516112a6919061283c565b60405180910390a1565b60008060009054906101000a900473ffffffffffffffffffffffffffffffffffffffff169050816000806101000a81548173ffffffffffffffffffffffffffffffffffffffff021916908373ffffffffffffffffffffffffffffffffffffffff1602179055508173ffffffffffffffffffffffffffffffffffffffff168173ffffffffffffffffffffffffffffffffffffffff167f8be0079c531659141344cd1fd0a4f28419497f9722a3daafe3b4186f6b6457e060405160405180910390a35050565b61137c611bf8565b6001600060146101000a81548160ff0219169083151502179055507f62e78cea01bee320cd4e420270b5ea74000d11b0c9f74754ebdbfc544b05a2586113c0610ea3565b6040516113cd919061283c565b60405180910390a1565b8173ffffffffffffffffffffffffffffffffffffffff168373ffffffffffffffffffffffffffffffffffffffff161415611446576040517f08c379a000000000000000000000000000000000000000000000000000000000815260040161143d90613327565b60405180910390fd5b80600260008573ffffffffffffffffffffffffffffffffffffffff1673ffffffffffffffffffffffffffffffffffffffff16815260200190815260200160002060008473ffffffffffffffffffffffffffffffffffffffff1673ffffffffffffffffffffffffffffffffffffffff16815260200190815260200160002060006101000a81548160ff0219169083151502179055508173ffffffffffffffffffffffffffffffffffffffff168373ffffffffffffffffffffffffffffffffffffffff167f17307eab39ab6107e8899845ad3d59bd9653f200f220920489ca2b5937696c31836040516115379190612243565b60405180910390a3505050565b600081600001549050919050565b600073ffffffffffffffffffffffffffffffffffffffff168473ffffffffffffffffffffffffffffffffffffffff1614156115c2576040517f08c379a00000000000000000000000000000000000000000000000000000000081526004016115b990613160565b60405180910390fd5b60006115cc610ea3565b905060006115d985611c42565b905060006115e685611c42565b90506115f68389898585896119b9565b60006001600088815260200190815260200160002060008a73ffffffffffffffffffffffffffffffffffffffff1673ffffffffffffffffffffffffffffffffffffffff1681526020019081526020016000205490508581101561168e576040517f08c379a0000000000000000000000000000000000000000000000000000000008152600401611685906131f2565b60405180910390fd5b8581036001600089815260200190815260200160002060008b73ffffffffffffffffffffffffffffffffffffffff1673ffffffffffffffffffffffffffffffffffffffff16815260200190815260200160002081905550856001600089815260200190815260200160002060008a73ffffffffffffffffffffffffffffffffffffffff1673ffffffffffffffffffffffffffffffffffffffff16815260200190815260200160002060008282546117459190612ed4565b925050819055508773ffffffffffffffffffffffffffffffffffffffff168973ffffffffffffffffffffffffffffffffffffffff168573ffffffffffffffffffffffffffffffffffffffff167fc3d58168c5ae7397731d063d5bbf3d657854427343f4c083240f7aacaa2d0f628a8a6040516117c2929190613347565b60405180910390a46117d8848a8a86868a6119cf565b6117e6848a8a8a8a8a611cbc565b505050505050505050565b6001816000016000828254019250508190555050565b600073ffffffffffffffffffffffffffffffffffffffff168473ffffffffffffffffffffffffffffffffffffffff161415611877576040517f08c379a000000000000000000000000000000000000000000000000000000000815260040161186e906133e2565b60405180910390fd5b6000611881610ea3565b9050600061188e85611c42565b9050600061189b85611c42565b90506118ac836000898585896119b9565b846001600088815260200190815260200160002060008973ffffffffffffffffffffffffffffffffffffffff1673ffffffffffffffffffffffffffffffffffffffff168152602001908152602001600020600082825461190c9190612ed4565b925050819055508673ffffffffffffffffffffffffffffffffffffffff16600073ffffffffffffffffffffffffffffffffffffffff168473ffffffffffffffffffffffffffffffffffffffff167fc3d58168c5ae7397731d063d5bbf3d657854427343f4c083240f7aacaa2d0f62898960405161198a929190613347565b60405180910390a46119a1836000898585896119cf565b6119b083600089898989611cbc565b50505050505050565b6119c7868686868686611e94565b505050505050565b505050505050565b6119f68473ffffffffffffffffffffffffffffffffffffffff16612066565b15611ba7578373ffffffffffffffffffffffffffffffffffffffff1663bc197c8187878686866040518663ffffffff1660e01b8152600401611a3c959493929190613457565b6020604051808303816000875af1925050508015611a7857506040513d601f19601f82011682018060405250810190611a7591906134d4565b60015b611b1e57611a8461350e565b806308c379a01415611ae15750611a99613530565b80611aa45750611ae3565b806040517f08c379a0000000000000000000000000000000000000000000000000000000008152600401611ad891906122f7565b60405180910390fd5b505b6040517f08c379a0000000000000000000000000000000000000000000000000000000008152600401611b1590613638565b60405180910390fd5b63bc197c8160e01b7bffffffffffffffffffffffffffffffffffffffffffffffffffffffff1916817bffffffffffffffffffffffffffffffffffffffffffffffffffffffff191614611ba5576040517f08c379a0000000000000000000000000000000000000000000000000000000008152600401611b9c906136ca565b60405180910390fd5b505b505050505050565b611bb76109bc565b611bf6576040517f08c379a0000000000000000000000000000000000000000000000000000000008152600401611bed90613736565b60405180910390fd5b565b611c006109bc565b15611c40576040517f08c379a0000000000000000000000000000000000000000000000000000000008152600401611c37906137a2565b60405180910390fd5b565b60606000600167ffffffffffffffff811115611c6157611c6061234b565b5b604051908082528060200260200182016040528015611c8f5781602001602082028036833780820191505090505b5090508281600081518110611ca757611ca6612c9d565b5b60200260200101818152505080915050919050565b611cdb8473ffffffffffffffffffffffffffffffffffffffff16612066565b15611e8c578373ffffffffffffffffffffffffffffffffffffffff1663f23a6e6187878686866040518663ffffffff1660e01b8152600401611d219594939291906137c2565b6020604051808303816000875af1925050508015611d5d57506040513d601f19601f82011682018060405250810190611d5a91906134d4565b60015b611e0357611d6961350e565b806308c379a01415611dc65750611d7e613530565b80611d895750611dc8565b806040517f08c379a0000000000000000000000000000000000000000000000000000000008152600401611dbd91906122f7565b60405180910390fd5b505b6040517f08c379a0000000000000000000000000000000000000000000000000000000008152600401611dfa90613638565b60405180910390fd5b63f23a6e6160e01b7bffffffffffffffffffffffffffffffffffffffffffffffffffffffff1916817bffffffffffffffffffffffffffffffffffffffffffffffffffffffff191614611e8a576040517f08c379a0000000000000000000000000000000000000000000000000000000008152600401611e81906136ca565b60405180910390fd5b505b505050505050565b611ea2868686868686612089565b600073ffffffffffffffffffffffffffffffffffffffff168573ffffffffffffffffffffffffffffffffffffffff161415611f545760005b8351811015611f5257828181518110611ef657611ef5612c9d565b5b602002602001015160046000868481518110611f1557611f14612c9d565b5b602002602001015181526020019081526020016000206000828254611f3a9190612ed4565b9250508190555080611f4b90612cfb565b9050611eda565b505b600073ffffffffffffffffffffffffffffffffffffffff168473ffffffffffffffffffffffffffffffffffffffff16141561205e5760005b835181101561205c576000848281518110611faa57611fa9612c9d565b5b602002602001015190506000848381518110611fc957611fc8612c9d565b5b602002602001015190506000600460008481526020019081526020016000205490508181101561202e576040517f08c379a00000000000000000000000000000000000000000000000000000000081526004016120259061388e565b60405180910390fd5b81810360046000858152602001908152602001600020819055505050508061205590612cfb565b9050611f8c565b505b505050505050565b6000808273ffffffffffffffffffffffffffffffffffffffff163b119050919050565b505050505050565b6000604051905090565b600080fd5b600080fd5b600073ffffffffffffffffffffffffffffffffffffffff82169050919050565b60006120d0826120a5565b9050919050565b6120e0816120c5565b81146120eb57600080fd5b50565b6000813590506120fd816120d7565b92915050565b6000819050919050565b61211681612103565b811461212157600080fd5b50565b6000813590506121338161210d565b92915050565b600080604083850312156121505761214f61209b565b5b600061215e858286016120ee565b925050602061216f85828601612124565b9150509250929050565b61218281612103565b82525050565b600060208201905061219d6000830184612179565b92915050565b60007fffffffff0000000000000000000000000000000000000000000000000000000082169050919050565b6121d8816121a3565b81146121e357600080fd5b50565b6000813590506121f5816121cf565b92915050565b6000602082840312156122115761221061209b565b5b600061221f848285016121e6565b91505092915050565b60008115159050919050565b61223d81612228565b82525050565b60006020820190506122586000830184612234565b92915050565b600081519050919050565b600082825260208201905092915050565b60005b8381101561229857808201518184015260208101905061227d565b838111156122a7576000848401525b50505050565b6000601f19601f8301169050919050565b60006122c98261225e565b6122d38185612269565b93506122e381856020860161227a565b6122ec816122ad565b840191505092915050565b6000602082019050818103600083015261231181846122be565b905092915050565b60006020828403121561232f5761232e61209b565b5b600061233d84828501612124565b91505092915050565b600080fd5b7f4e487b7100000000000000000000000000000000000000000000000000000000600052604160045260246000fd5b612383826122ad565b810181811067ffffffffffffffff821117156123a2576123a161234b565b5b80604052505050565b60006123b5612091565b90506123c1828261237a565b919050565b600067ffffffffffffffff8211156123e1576123e061234b565b5b602082029050602081019050919050565b600080fd5b600061240a612405846123c6565b6123ab565b9050808382526020820190506020840283018581111561242d5761242c6123f2565b5b835b8181101561245657806124428882612124565b84526020840193505060208101905061242f565b5050509392505050565b600082601f83011261247557612474612346565b5b81356124858482602086016123f7565b91505092915050565b600080fd5b600067ffffffffffffffff8211156124ae576124ad61234b565b5b6124b7826122ad565b9050602081019050919050565b82818337600083830152505050565b60006124e66124e184612493565b6123ab565b9050828152602081018484840111156125025761250161248e565b5b61250d8482856124c4565b509392505050565b600082601f83011261252a57612529612346565b5b813561253a8482602086016124d3565b91505092915050565b600080600080600060a0868803121561255f5761255e61209b565b5b600061256d888289016120ee565b955050602061257e888289016120ee565b945050604086013567ffffffffffffffff81111561259f5761259e6120a0565b5b6125ab88828901612460565b935050606086013567ffffffffffffffff8111156125cc576125cb6120a0565b5b6125d888828901612460565b925050608086013567ffffffffffffffff8111156125f9576125f86120a0565b5b61260588828901612515565b9150509295509295909350565b600067ffffffffffffffff82111561262d5761262c61234b565b5b602082029050602081019050919050565b600061265161264c84612612565b6123ab565b90508083825260208201905060208402830185811115612674576126736123f2565b5b835b8181101561269d578061268988826120ee565b845260208401935050602081019050612676565b5050509392505050565b600082601f8301126126bc576126bb612346565b5b81356126cc84826020860161263e565b91505092915050565b600080604083850312156126ec576126eb61209b565b5b600083013567ffffffffffffffff81111561270a576127096120a0565b5b612716858286016126a7565b925050602083013567ffffffffffffffff811115612737576127366120a0565b5b61274385828601612460565b9150509250929050565b600081519050919050565b600082825260208201905092915050565b6000819050602082019050919050565b61278281612103565b82525050565b60006127948383612779565b60208301905092915050565b6000602082019050919050565b60006127b88261274d565b6127c28185612758565b93506127cd83612769565b8060005b838110156127fe5781516127e58882612788565b97506127f0836127a0565b9250506001810190506127d1565b5085935050505092915050565b6000602082019050818103600083015261282581846127ad565b905092915050565b612836816120c5565b82525050565b6000602082019050612851600083018461282d565b92915050565b61286081612228565b811461286b57600080fd5b50565b60008135905061287d81612857565b92915050565b6000806040838503121561289a5761289961209b565b5b60006128a8858286016120ee565b92505060206128b98582860161286e565b9150509250929050565b600080604083850312156128da576128d961209b565b5b60006128e8858286016120ee565b92505060206128f9858286016120ee565b9150509250929050565b600080600080600060a0868803121561291f5761291e61209b565b5b600061292d888289016120ee565b955050602061293e888289016120ee565b945050604061294f88828901612124565b935050606061296088828901612124565b925050608086013567ffffffffffffffff811115612981576129806120a0565b5b61298d88828901612515565b9150509295509295909350565b6000602082840312156129b0576129af61209b565b5b60006129be848285016120ee565b91505092915050565b600060ff82169050919050565b6129dd816129c7565b81146129e857600080fd5b50565b6000813590506129fa816129d4565b92915050565b60008060408385031215612a1757612a1661209b565b5b6000612a2585828601612124565b9250506020612a36858286016129eb565b9150509250929050565b7f455243313135353a2061646472657373207a65726f206973206e6f742061207660008201527f616c6964206f776e657200000000000000000000000000000000000000000000602082015250565b6000612a9c602a83612269565b9150612aa782612a40565b604082019050919050565b60006020820190508181036000830152612acb81612a8f565b9050919050565b7f4e487b7100000000000000000000000000000000000000000000000000000000600052602260045260246000fd5b60006002820490506001821680612b1957607f821691505b60208210811415612b2d57612b2c612ad2565b5b50919050565b7f455243313135353a2063616c6c6572206973206e6f7420746f6b656e206f776e60008201527f6572206e6f7220617070726f7665640000000000000000000000000000000000602082015250565b6000612b8f602f83612269565b9150612b9a82612b33565b604082019050919050565b60006020820190508181036000830152612bbe81612b82565b9050919050565b600081905092915050565b50565b6000612be0600083612bc5565b9150612beb82612bd0565b600082019050919050565b6000612c0182612bd3565b9150819050919050565b7f455243313135353a206163636f756e747320616e6420696473206c656e67746860008201527f206d69736d617463680000000000000000000000000000000000000000000000602082015250565b6000612c67602983612269565b9150612c7282612c0b565b604082019050919050565b60006020820190508181036000830152612c9681612c5a565b9050919050565b7f4e487b7100000000000000000000000000000000000000000000000000000000600052603260045260246000fd5b7f4e487b7100000000000000000000000000000000000000000000000000000000600052601160045260246000fd5b6000612d0682612103565b91507fffffffffffffffffffffffffffffffffffffffffffffffffffffffffffffffff821415612d3957612d38612ccc565b5b600182019050919050565b7f4f776e61626c653a206e6577206f776e657220697320746865207a65726f206160008201527f6464726573730000000000000000000000000000000000000000000000000000602082015250565b6000612da0602683612269565b9150612dab82612d44565b604082019050919050565b60006020820190508181036000830152612dcf81612d93565b9050919050565b7f416d6f756e74206f66207469636b657473206d7573742062652067726561746560008201527f72207468616e20302e0000000000000000000000000000000000000000000000602082015250565b6000612e32602983612269565b9150612e3d82612dd6565b604082019050919050565b60006020820190508181036000830152612e6181612e25565b9050919050565b7f43616e6e6f74206d696e74206d6f7265207468616e2033207469636b6574732e600082015250565b6000612e9e602083612269565b9150612ea982612e68565b602082019050919050565b60006020820190508181036000830152612ecd81612e91565b9050919050565b6000612edf82612103565b9150612eea83612103565b9250827fffffffffffffffffffffffffffffffffffffffffffffffffffffffffffffffff03821115612f1f57612f1e612ccc565b5b828201905092915050565b7f6e6f7420656e6f756768207469636b6574730000000000000000000000000000600082015250565b6000612f60601283612269565b9150612f6b82612f2a565b602082019050919050565b60006020820190508181036000830152612f8f81612f53565b9050919050565b7f4f6e6c792033207469636b657473207065722077616c6c65742e000000000000600082015250565b6000612fcc601a83612269565b9150612fd782612f96565b602082019050919050565b60006020820190508181036000830152612ffb81612fbf565b9050919050565b600061300d82612103565b915061301883612103565b9250817fffffffffffffffffffffffffffffffffffffffffffffffffffffffffffffffff048311821515161561305157613050612ccc565b5b828202905092915050565b7f455243313135353a2069647320616e6420616d6f756e7473206c656e6774682060008201527f6d69736d61746368000000000000000000000000000000000000000000000000602082015250565b60006130b8602883612269565b91506130c38261305c565b604082019050919050565b600060208201905081810360008301526130e7816130ab565b9050919050565b7f455243313135353a207472616e7366657220746f20746865207a65726f20616460008201527f6472657373000000000000000000000000000000000000000000000000000000602082015250565b600061314a602583612269565b9150613155826130ee565b604082019050919050565b600060208201905081810360008301526131798161313d565b9050919050565b7f455243313135353a20696e73756666696369656e742062616c616e636520666f60008201527f72207472616e7366657200000000000000000000000000000000000000000000602082015250565b60006131dc602a83612269565b91506131e782613180565b604082019050919050565b6000602082019050818103600083015261320b816131cf565b9050919050565b6000604082019050818103600083015261322c81856127ad565b9050818103602083015261324081846127ad565b90509392505050565b7f4f776e61626c653a2063616c6c6572206973206e6f7420746865206f776e6572600082015250565b600061327f602083612269565b915061328a82613249565b602082019050919050565b600060208201905081810360008301526132ae81613272565b9050919050565b7f455243313135353a2073657474696e6720617070726f76616c2073746174757360008201527f20666f722073656c660000000000000000000000000000000000000000000000602082015250565b6000613311602983612269565b915061331c826132b5565b604082019050919050565b6000602082019050818103600083015261334081613304565b9050919050565b600060408201905061335c6000830185612179565b6133696020830184612179565b9392505050565b7f455243313135353a206d696e7420746f20746865207a65726f2061646472657360008201527f7300000000000000000000000000000000000000000000000000000000000000602082015250565b60006133cc602183612269565b91506133d782613370565b604082019050919050565b600060208201905081810360008301526133fb816133bf565b9050919050565b600081519050919050565b600082825260208201905092915050565b600061342982613402565b613433818561340d565b935061344381856020860161227a565b61344c816122ad565b840191505092915050565b600060a08201905061346c600083018861282d565b613479602083018761282d565b818103604083015261348b81866127ad565b9050818103606083015261349f81856127ad565b905081810360808301526134b3818461341e565b90509695505050505050565b6000815190506134ce816121cf565b92915050565b6000602082840312156134ea576134e961209b565b5b60006134f8848285016134bf565b91505092915050565b60008160e01c9050919050565b600060033d111561352d5760046000803e61352a600051613501565b90505b90565b600060443d1015613540576135c3565b613548612091565b60043d036004823e80513d602482011167ffffffffffffffff821117156135705750506135c3565b808201805167ffffffffffffffff81111561358e57505050506135c3565b80602083010160043d0385018111156135ab5750505050506135c3565b6135ba8260200185018661237a565b82955050505050505b90565b7f455243313135353a207472616e7366657220746f206e6f6e204552433131353560008201527f526563656976657220696d706c656d656e746572000000000000000000000000602082015250565b6000613622603483612269565b915061362d826135c6565b604082019050919050565b6000602082019050818103600083015261365181613615565b9050919050565b7f455243313135353a204552433131353552656365697665722072656a6563746560008201527f6420746f6b656e73000000000000000000000000000000000000000000000000602082015250565b60006136b4602883612269565b91506136bf82613658565b604082019050919050565b600060208201905081810360008301526136e3816136a7565b9050919050565b7f5061757361626c653a206e6f7420706175736564000000000000000000000000600082015250565b6000613720601483612269565b915061372b826136ea565b602082019050919050565b6000602082019050818103600083015261374f81613713565b9050919050565b7f5061757361626c653a2070617573656400000000000000000000000000000000600082015250565b600061378c601083612269565b915061379782613756565b602082019050919050565b600060208201905081810360008301526137bb8161377f565b9050919050565b600060a0820190506137d7600083018861282d565b6137e4602083018761282d565b6137f16040830186612179565b6137fe6060830185612179565b8181036080830152613810818461341e565b90509695505050505050565b7f455243313135353a206275726e20616d6f756e74206578636565647320746f7460008201527f616c537570706c79000000000000000000000000000000000000000000000000602082015250565b6000613878602883612269565b91506138838261381c565b604082019050919050565b600060208201905081810360008301526138a78161386b565b905091905056fea264697066735822122060aee1898aa6d7c3c63839ba4cb2960bcc5f7fe8dda926f113c887dd06068b2464736f6c634300080c0033a26469706673582212202f93b987fef3af2912917018997a9ede8cbe98925bb4fc7018bb6f0eb9cf536c64736f6c634300080c0033",
  "immutableReferences": {},
  "source": "// SPDX-License-Identifier: MIT\npragma solidity ^0.8.0;\nimport \"@openzeppelin/contracts/token/ERC1155/IERC1155.sol\";\nimport \"@openzeppelin/contracts/access/Ownable.sol\";\nimport '@openzeppelin/contracts/security/Pausable.sol';\nimport '@openzeppelin/contracts/token/ERC1155/ERC1155.sol';\nimport '@openzeppelin/contracts/token/ERC1155/extensions/ERC1155Supply.sol';\nimport \"@openzeppelin/contracts/utils/Counters.sol\";\n\ncontract Event is Ownable, Pausable, ERC1155, ERC1155Supply{\n    using Counters for Counters.Counter;\n    Counters.Counter private _tokenSupply;\n    \n    string baseURI;\n    string name_;\n    uint256 amountOfTickets;\n    uint256 costPerTicket;\n\n    event Mint(uint256 indexed id, address indexed account, uint256 amount);\n\n    constructor(\n        string memory _name,\n        string memory _uri,\n        uint256 _amountOfTickets,\n        uint256 _costPerTicket) ERC1155(_uri) {\n        baseURI = _uri;\n        amountOfTickets = _amountOfTickets;\n        costPerTicket = _costPerTicket;\n        name_ = _name;\n    }\n\n    function pause() external onlyOwner {\n        _pause();\n    }\n\n    function unpause() external onlyOwner {\n        _unpause();\n    }\n\n    function name() public view returns (string memory) {\n        return name_;\n    }\n\n    function _beforeTokenTransfer(\n        address operator,\n        address from,\n        address to,\n        uint256[] memory ids,\n        uint256[] memory amounts,\n        bytes memory data\n    ) internal virtual override(ERC1155, ERC1155Supply) {\n        super._beforeTokenTransfer(operator, from, to, ids, amounts, data);\n    }\n\n    function mint(uint256 _amount, uint8 _id) public payable {\n        require(_amount > 0, \"Amount of tickets must be greater than 0.\");\n        require(_amount <= 3, \"Cannot mint more than 3 tickets.\"); // can customize this per host preference\n        uint256 mintIndex = _tokenSupply.current() + _amount;\n        require(mintIndex <= amountOfTickets, \"not enough tickets\");\n        require(_amount + balanceOf(msg.sender, _id) < 3, \"Only 3 tickets per wallet.\"); // can customize\n        require(msg.value >= costPerTicket * _amount);\n\n        for (uint256 i = 0; i < _amount; i++) {\n            _tokenSupply.increment();\n        }\n        _mint(msg.sender, 0, _amount, \" \");\n        emit Mint(_id, msg.sender, _amount);\n    }\n\n    function ticketsMinted() public view returns (uint256) {\n        return _tokenSupply.current();\n    }\n\n    function withdraw() public payable onlyOwner {\n        (bool success, ) = payable(msg.sender).call{\n            value: address(this).balance\n        }(\"\");\n        require(success);\n    }\n}\n\ncontract CreateEvent {\n\n    event EventCreated(string indexed name, uint256 amountOfTickets, uint256 costPerTicket);\n\n    function create(\n        string memory _name,\n        string memory _uri,\n        uint256 _amountTickets,\n        uint256 _costPerTicket) public {\n        new Event(_name, _uri, _amountTickets, _costPerTicket);\n        emit EventCreated(_name, _amountTickets, _costPerTicket);\n    }\n\n}",
  "sourcePath": "/Users/jaydendavila/Desktop/event-marketplace/contracts/Event.sol",
  "compiler": {
    "name": "solc",
    "version": "0.8.12+commit.f00d7308.Emscripten.clang"
  },
  "schemaVersion": "3.4.6",
  "updatedAt": "2022-08-24T18:42:02.500Z",
  "networkType": "ethereum",
  "devdoc": {
    "kind": "dev",
    "methods": {},
    "version": 1
  },
  "userdoc": {
    "kind": "user",
    "methods": {},
    "version": 1
  }
}