{
  "contractName": "Event",
  "abi": [
    {
      "inputs": [
        {
          "internalType": "string",
          "name": "_name",
          "type": "string"
        },
        {
          "internalType": "string",
          "name": "_uri",
          "type": "string"
        },
        {
          "internalType": "uint256",
          "name": "_amountOfTickets",
          "type": "uint256"
        },
        {
          "internalType": "uint256",
          "name": "_costPerTicket",
          "type": "uint256"
        }
      ],
      "stateMutability": "nonpayable",
      "type": "constructor"
    },
    {
      "anonymous": false,
      "inputs": [
        {
          "indexed": true,
          "internalType": "address",
          "name": "account",
          "type": "address"
        },
        {
          "indexed": true,
          "internalType": "address",
          "name": "operator",
          "type": "address"
        },
        {
          "indexed": false,
          "internalType": "bool",
          "name": "approved",
          "type": "bool"
        }
      ],
      "name": "ApprovalForAll",
      "type": "event"
    },
    {
      "anonymous": false,
      "inputs": [
        {
          "indexed": true,
          "internalType": "address",
          "name": "previousOwner",
          "type": "address"
        },
        {
          "indexed": true,
          "internalType": "address",
          "name": "newOwner",
          "type": "address"
        }
      ],
      "name": "OwnershipTransferred",
      "type": "event"
    },
    {
      "anonymous": false,
      "inputs": [
        {
          "indexed": false,
          "internalType": "address",
          "name": "account",
          "type": "address"
        }
      ],
      "name": "Paused",
      "type": "event"
    },
    {
      "anonymous": false,
      "inputs": [
        {
          "indexed": true,
          "internalType": "address",
          "name": "operator",
          "type": "address"
        },
        {
          "indexed": true,
          "internalType": "address",
          "name": "from",
          "type": "address"
        },
        {
          "indexed": true,
          "internalType": "address",
          "name": "to",
          "type": "address"
        },
        {
          "indexed": false,
          "internalType": "uint256[]",
          "name": "ids",
          "type": "uint256[]"
        },
        {
          "indexed": false,
          "internalType": "uint256[]",
          "name": "values",
          "type": "uint256[]"
        }
      ],
      "name": "TransferBatch",
      "type": "event"
    },
    {
      "anonymous": false,
      "inputs": [
        {
          "indexed": true,
          "internalType": "address",
          "name": "operator",
          "type": "address"
        },
        {
          "indexed": true,
          "internalType": "address",
          "name": "from",
          "type": "address"
        },
        {
          "indexed": true,
          "internalType": "address",
          "name": "to",
          "type": "address"
        },
        {
          "indexed": false,
          "internalType": "uint256",
          "name": "id",
          "type": "uint256"
        },
        {
          "indexed": false,
          "internalType": "uint256",
          "name": "value",
          "type": "uint256"
        }
      ],
      "name": "TransferSingle",
      "type": "event"
    },
    {
      "anonymous": false,
      "inputs": [
        {
          "indexed": false,
          "internalType": "string",
          "name": "value",
          "type": "string"
        },
        {
          "indexed": true,
          "internalType": "uint256",
          "name": "id",
          "type": "uint256"
        }
      ],
      "name": "URI",
      "type": "event"
    },
    {
      "anonymous": false,
      "inputs": [
        {
          "indexed": false,
          "internalType": "address",
          "name": "account",
          "type": "address"
        }
      ],
      "name": "Unpaused",
      "type": "event"
    },
    {
      "inputs": [
        {
          "internalType": "address",
          "name": "account",
          "type": "address"
        },
        {
          "internalType": "uint256",
          "name": "id",
          "type": "uint256"
        }
      ],
      "name": "balanceOf",
      "outputs": [
        {
          "internalType": "uint256",
          "name": "",
          "type": "uint256"
        }
      ],
      "stateMutability": "view",
      "type": "function"
    },
    {
      "inputs": [
        {
          "internalType": "address[]",
          "name": "accounts",
          "type": "address[]"
        },
        {
          "internalType": "uint256[]",
          "name": "ids",
          "type": "uint256[]"
        }
      ],
      "name": "balanceOfBatch",
      "outputs": [
        {
          "internalType": "uint256[]",
          "name": "",
          "type": "uint256[]"
        }
      ],
      "stateMutability": "view",
      "type": "function"
    },
    {
      "inputs": [
        {
          "internalType": "uint256",
          "name": "id",
          "type": "uint256"
        }
      ],
      "name": "exists",
      "outputs": [
        {
          "internalType": "bool",
          "name": "",
          "type": "bool"
        }
      ],
      "stateMutability": "view",
      "type": "function"
    },
    {
      "inputs": [
        {
          "internalType": "address",
          "name": "account",
          "type": "address"
        },
        {
          "internalType": "address",
          "name": "operator",
          "type": "address"
        }
      ],
      "name": "isApprovedForAll",
      "outputs": [
        {
          "internalType": "bool",
          "name": "",
          "type": "bool"
        }
      ],
      "stateMutability": "view",
      "type": "function"
    },
    {
      "inputs": [],
      "name": "owner",
      "outputs": [
        {
          "internalType": "address",
          "name": "",
          "type": "address"
        }
      ],
      "stateMutability": "view",
      "type": "function"
    },
    {
      "inputs": [],
      "name": "paused",
      "outputs": [
        {
          "internalType": "bool",
          "name": "",
          "type": "bool"
        }
      ],
      "stateMutability": "view",
      "type": "function"
    },
    {
      "inputs": [],
      "name": "renounceOwnership",
      "outputs": [],
      "stateMutability": "nonpayable",
      "type": "function"
    },
    {
      "inputs": [
        {
          "internalType": "address",
          "name": "from",
          "type": "address"
        },
        {
          "internalType": "address",
          "name": "to",
          "type": "address"
        },
        {
          "internalType": "uint256[]",
          "name": "ids",
          "type": "uint256[]"
        },
        {
          "internalType": "uint256[]",
          "name": "amounts",
          "type": "uint256[]"
        },
        {
          "internalType": "bytes",
          "name": "data",
          "type": "bytes"
        }
      ],
      "name": "safeBatchTransferFrom",
      "outputs": [],
      "stateMutability": "nonpayable",
      "type": "function"
    },
    {
      "inputs": [
        {
          "internalType": "address",
          "name": "from",
          "type": "address"
        },
        {
          "internalType": "address",
          "name": "to",
          "type": "address"
        },
        {
          "internalType": "uint256",
          "name": "id",
          "type": "uint256"
        },
        {
          "internalType": "uint256",
          "name": "amount",
          "type": "uint256"
        },
        {
          "internalType": "bytes",
          "name": "data",
          "type": "bytes"
        }
      ],
      "name": "safeTransferFrom",
      "outputs": [],
      "stateMutability": "nonpayable",
      "type": "function"
    },
    {
      "inputs": [
        {
          "internalType": "address",
          "name": "operator",
          "type": "address"
        },
        {
          "internalType": "bool",
          "name": "approved",
          "type": "bool"
        }
      ],
      "name": "setApprovalForAll",
      "outputs": [],
      "stateMutability": "nonpayable",
      "type": "function"
    },
    {
      "inputs": [
        {
          "internalType": "bytes4",
          "name": "interfaceId",
          "type": "bytes4"
        }
      ],
      "name": "supportsInterface",
      "outputs": [
        {
          "internalType": "bool",
          "name": "",
          "type": "bool"
        }
      ],
      "stateMutability": "view",
      "type": "function"
    },
    {
      "inputs": [
        {
          "internalType": "uint256",
          "name": "id",
          "type": "uint256"
        }
      ],
      "name": "totalSupply",
      "outputs": [
        {
          "internalType": "uint256",
          "name": "",
          "type": "uint256"
        }
      ],
      "stateMutability": "view",
      "type": "function"
    },
    {
      "inputs": [
        {
          "internalType": "address",
          "name": "newOwner",
          "type": "address"
        }
      ],
      "name": "transferOwnership",
      "outputs": [],
      "stateMutability": "nonpayable",
      "type": "function"
    },
    {
      "inputs": [
        {
          "internalType": "uint256",
          "name": "",
          "type": "uint256"
        }
      ],
      "name": "uri",
      "outputs": [
        {
          "internalType": "string",
          "name": "",
          "type": "string"
        }
      ],
      "stateMutability": "view",
      "type": "function"
    },
    {
      "inputs": [],
      "name": "pause",
      "outputs": [],
      "stateMutability": "nonpayable",
      "type": "function"
    },
    {
      "inputs": [],
      "name": "unpause",
      "outputs": [],
      "stateMutability": "nonpayable",
      "type": "function"
    },
    {
      "inputs": [],
      "name": "name",
      "outputs": [
        {
          "internalType": "string",
          "name": "",
          "type": "string"
        }
      ],
      "stateMutability": "view",
      "type": "function"
    },
    {
      "inputs": [
        {
          "internalType": "uint256",
          "name": "_amount",
          "type": "uint256"
        },
        {
          "internalType": "uint8",
          "name": "_id",
          "type": "uint8"
        }
      ],
      "name": "mint",
      "outputs": [],
      "stateMutability": "payable",
      "type": "function"
    },
    {
      "inputs": [],
      "name": "withdraw",
      "outputs": [],
      "stateMutability": "payable",
      "type": "function"
    }
  ],
  "bytecode": "0x60806040523480156200001157600080fd5b5060405162003d5938038062003d5983398181016040528101906200003791906200043e565b82620000586200004c620000ce60201b60201c565b620000d660201b60201c565b60008060146101000a81548160ff02191690831515021790555062000083816200019a60201b60201c565b5082600590805190602001906200009c929190620001b6565b5081600781905550806008819055508360069080519060200190620000c3929190620001b6565b505050505062000553565b600033905090565b60008060009054906101000a900473ffffffffffffffffffffffffffffffffffffffff169050816000806101000a81548173ffffffffffffffffffffffffffffffffffffffff021916908373ffffffffffffffffffffffffffffffffffffffff1602179055508173ffffffffffffffffffffffffffffffffffffffff168173ffffffffffffffffffffffffffffffffffffffff167f8be0079c531659141344cd1fd0a4f28419497f9722a3daafe3b4186f6b6457e060405160405180910390a35050565b8060039080519060200190620001b2929190620001b6565b5050565b828054620001c4906200051d565b90600052602060002090601f016020900481019282620001e8576000855562000234565b82601f106200020357805160ff191683800117855562000234565b8280016001018555821562000234579182015b828111156200023357825182559160200191906001019062000216565b5b50905062000243919062000247565b5090565b5b808211156200026257600081600090555060010162000248565b5090565b6000604051905090565b600080fd5b600080fd5b600080fd5b600080fd5b6000601f19601f8301169050919050565b7f4e487b7100000000000000000000000000000000000000000000000000000000600052604160045260246000fd5b620002cf8262000284565b810181811067ffffffffffffffff82111715620002f157620002f062000295565b5b80604052505050565b60006200030662000266565b9050620003148282620002c4565b919050565b600067ffffffffffffffff82111562000337576200033662000295565b5b620003428262000284565b9050602081019050919050565b60005b838110156200036f57808201518184015260208101905062000352565b838111156200037f576000848401525b50505050565b60006200039c620003968462000319565b620002fa565b905082815260208101848484011115620003bb57620003ba6200027f565b5b620003c88482856200034f565b509392505050565b600082601f830112620003e857620003e76200027a565b5b8151620003fa84826020860162000385565b91505092915050565b6000819050919050565b620004188162000403565b81146200042457600080fd5b50565b60008151905062000438816200040d565b92915050565b600080600080608085870312156200045b576200045a62000270565b5b600085015167ffffffffffffffff8111156200047c576200047b62000275565b5b6200048a87828801620003d0565b945050602085015167ffffffffffffffff811115620004ae57620004ad62000275565b5b620004bc87828801620003d0565b9350506040620004cf8782880162000427565b9250506060620004e28782880162000427565b91505092959194509250565b7f4e487b7100000000000000000000000000000000000000000000000000000000600052602260045260246000fd5b600060028204905060018216806200053657607f821691505b602082108114156200054d576200054c620004ee565b5b50919050565b6137f680620005636000396000f3fe6080604052600436106101135760003560e01c80635c975abb116100a0578063bd85b03911610064578063bd85b0391461036b578063e985e9c5146103a8578063f242432a146103e5578063f2fde38b1461040e578063fb2f1ffb1461043757610113565b80635c975abb146102be578063715018a6146102e95780638456cb59146103005780638da5cb5b14610317578063a22cb4651461034257610113565b80632eb2c2d6116100e75780632eb2c2d6146101fa5780633ccfd60b146102235780633f4ba83a1461022d5780634e1273f4146102445780634f558e791461028157610113565b8062fdd58e1461011857806301ffc9a71461015557806306fdde03146101925780630e89341c146101bd575b600080fd5b34801561012457600080fd5b5061013f600480360381019061013a919061204b565b610453565b60405161014c919061209a565b60405180910390f35b34801561016157600080fd5b5061017c6004803603810190610177919061210d565b61051d565b6040516101899190612155565b60405180910390f35b34801561019e57600080fd5b506101a76105ff565b6040516101b49190612209565b60405180910390f35b3480156101c957600080fd5b506101e460048036038101906101df919061222b565b610691565b6040516101f19190612209565b60405180910390f35b34801561020657600080fd5b50610221600480360381019061021c9190612455565b610725565b005b61022b6107c6565b005b34801561023957600080fd5b50610242610847565b005b34801561025057600080fd5b5061026b600480360381019061026691906125e7565b610859565b604051610278919061271d565b60405180910390f35b34801561028d57600080fd5b506102a860048036038101906102a3919061222b565b610972565b6040516102b59190612155565b60405180910390f35b3480156102ca57600080fd5b506102d3610986565b6040516102e09190612155565b60405180910390f35b3480156102f557600080fd5b506102fe61099c565b005b34801561030c57600080fd5b506103156109b0565b005b34801561032357600080fd5b5061032c6109c2565b604051610339919061274e565b60405180910390f35b34801561034e57600080fd5b5061036960048036038101906103649190612795565b6109eb565b005b34801561037757600080fd5b50610392600480360381019061038d919061222b565b610a01565b60405161039f919061209a565b60405180910390f35b3480156103b457600080fd5b506103cf60048036038101906103ca91906127d5565b610a1e565b6040516103dc9190612155565b60405180910390f35b3480156103f157600080fd5b5061040c60048036038101906104079190612815565b610ab2565b005b34801561041a57600080fd5b50610435600480360381019061043091906128ac565b610b53565b005b610451600480360381019061044c9190612912565b610bd7565b005b60008073ffffffffffffffffffffffffffffffffffffffff168373ffffffffffffffffffffffffffffffffffffffff1614156104c4576040517f08c379a00000000000000000000000000000000000000000000000000000000081526004016104bb906129c4565b60405180910390fd5b6001600083815260200190815260200160002060008473ffffffffffffffffffffffffffffffffffffffff1673ffffffffffffffffffffffffffffffffffffffff16815260200190815260200160002054905092915050565b60007fd9b67a26000000000000000000000000000000000000000000000000000000007bffffffffffffffffffffffffffffffffffffffffffffffffffffffff1916827bffffffffffffffffffffffffffffffffffffffffffffffffffffffff191614806105e857507f0e89341c000000000000000000000000000000000000000000000000000000007bffffffffffffffffffffffffffffffffffffffffffffffffffffffff1916827bffffffffffffffffffffffffffffffffffffffffffffffffffffffff1916145b806105f857506105f782610d6f565b5b9050919050565b60606006805461060e90612a13565b80601f016020809104026020016040519081016040528092919081815260200182805461063a90612a13565b80156106875780601f1061065c57610100808354040283529160200191610687565b820191906000526020600020905b81548152906001019060200180831161066a57829003601f168201915b5050505050905090565b6060600380546106a090612a13565b80601f01602080910402602001604051908101604052809291908181526020018280546106cc90612a13565b80156107195780601f106106ee57610100808354040283529160200191610719565b820191906000526020600020905b8154815290600101906020018083116106fc57829003601f168201915b50505050509050919050565b61072d610dd9565b73ffffffffffffffffffffffffffffffffffffffff168573ffffffffffffffffffffffffffffffffffffffff16148061077357506107728561076d610dd9565b610a1e565b5b6107b2576040517f08c379a00000000000000000000000000000000000000000000000000000000081526004016107a990612ab7565b60405180910390fd5b6107bf8585858585610de1565b5050505050565b6107ce611106565b60003373ffffffffffffffffffffffffffffffffffffffff16476040516107f490612b08565b60006040518083038185875af1925050503d8060008114610831576040519150601f19603f3d011682016040523d82523d6000602084013e610836565b606091505b505090508061084457600080fd5b50565b61084f611106565b610857611184565b565b6060815183511461089f576040517f08c379a000000000000000000000000000000000000000000000000000000000815260040161089690612b8f565b60405180910390fd5b6000835167ffffffffffffffff8111156108bc576108bb61225d565b5b6040519080825280602002602001820160405280156108ea5781602001602082028036833780820191505090505b50905060005b84518110156109675761093785828151811061090f5761090e612baf565b5b602002602001015185838151811061092a57610929612baf565b5b6020026020010151610453565b82828151811061094a57610949612baf565b5b6020026020010181815250508061096090612c0d565b90506108f0565b508091505092915050565b60008061097e83610a01565b119050919050565b60008060149054906101000a900460ff16905090565b6109a4611106565b6109ae60006111e6565b565b6109b8611106565b6109c06112aa565b565b60008060009054906101000a900473ffffffffffffffffffffffffffffffffffffffff16905090565b6109fd6109f6610dd9565b838361130d565b5050565b600060046000838152602001908152602001600020549050919050565b6000600260008473ffffffffffffffffffffffffffffffffffffffff1673ffffffffffffffffffffffffffffffffffffffff16815260200190815260200160002060008373ffffffffffffffffffffffffffffffffffffffff1673ffffffffffffffffffffffffffffffffffffffff16815260200190815260200160002060009054906101000a900460ff16905092915050565b610aba610dd9565b73ffffffffffffffffffffffffffffffffffffffff168573ffffffffffffffffffffffffffffffffffffffff161480610b005750610aff85610afa610dd9565b610a1e565b5b610b3f576040517f08c379a0000000000000000000000000000000000000000000000000000000008152600401610b3690612ab7565b60405180910390fd5b610b4c858585858561147a565b5050505050565b610b5b611106565b600073ffffffffffffffffffffffffffffffffffffffff168173ffffffffffffffffffffffffffffffffffffffff161415610bcb576040517f08c379a0000000000000000000000000000000000000000000000000000000008152600401610bc290612cc8565b60405180910390fd5b610bd4816111e6565b50565b60008211610c1a576040517f08c379a0000000000000000000000000000000000000000000000000000000008152600401610c1190612d5a565b60405180910390fd5b6003821115610c5e576040517f08c379a0000000000000000000000000000000000000000000000000000000008152600401610c5590612dc6565b60405180910390fd5b6000610c6c8260ff16610a01565b90506007548382610c7d9190612de6565b1115610cbe576040517f08c379a0000000000000000000000000000000000000000000000000000000008152600401610cb590612e88565b60405180910390fd5b6002610ccd338460ff16610453565b1115610d0e576040517f08c379a0000000000000000000000000000000000000000000000000000000008152600401610d0590612ef4565b60405180910390fd5b82600854610d1c9190612f14565b341015610d2857600080fd5b610d6a336000856040518060400160405280600181526020017f2000000000000000000000000000000000000000000000000000000000000000815250611719565b505050565b60007f01ffc9a7000000000000000000000000000000000000000000000000000000007bffffffffffffffffffffffffffffffffffffffffffffffffffffffff1916827bffffffffffffffffffffffffffffffffffffffffffffffffffffffff1916149050919050565b600033905090565b8151835114610e25576040517f08c379a0000000000000000000000000000000000000000000000000000000008152600401610e1c90612fe0565b60405180910390fd5b600073ffffffffffffffffffffffffffffffffffffffff168473ffffffffffffffffffffffffffffffffffffffff161415610e95576040517f08c379a0000000000000000000000000000000000000000000000000000000008152600401610e8c90613072565b60405180910390fd5b6000610e9f610dd9565b9050610eaf8187878787876118cb565b60005b8451811015611063576000858281518110610ed057610ecf612baf565b5b602002602001015190506000858381518110610eef57610eee612baf565b5b6020026020010151905060006001600084815260200190815260200160002060008b73ffffffffffffffffffffffffffffffffffffffff1673ffffffffffffffffffffffffffffffffffffffff16815260200190815260200160002054905081811015610f91576040517f08c379a0000000000000000000000000000000000000000000000000000000008152600401610f8890613104565b60405180910390fd5b8181036001600085815260200190815260200160002060008c73ffffffffffffffffffffffffffffffffffffffff1673ffffffffffffffffffffffffffffffffffffffff16815260200190815260200160002081905550816001600085815260200190815260200160002060008b73ffffffffffffffffffffffffffffffffffffffff1673ffffffffffffffffffffffffffffffffffffffff16815260200190815260200160002060008282546110489190612de6565b925050819055505050508061105c90612c0d565b9050610eb2565b508473ffffffffffffffffffffffffffffffffffffffff168673ffffffffffffffffffffffffffffffffffffffff168273ffffffffffffffffffffffffffffffffffffffff167f4a39dc06d4c0dbc64b70af90fd698a233a518aa5d07e595d983b8c0526c8f7fb87876040516110da929190613124565b60405180910390a46110f08187878787876118e1565b6110fe8187878787876118e9565b505050505050565b61110e610dd9565b73ffffffffffffffffffffffffffffffffffffffff1661112c6109c2565b73ffffffffffffffffffffffffffffffffffffffff1614611182576040517f08c379a0000000000000000000000000000000000000000000000000000000008152600401611179906131a7565b60405180910390fd5b565b61118c611ac1565b60008060146101000a81548160ff0219169083151502179055507f5db9ee0a495bf2e6ff9c91a7834c1ba4fdd244a5e8aa4e537bd38aeae4b073aa6111cf610dd9565b6040516111dc919061274e565b60405180910390a1565b60008060009054906101000a900473ffffffffffffffffffffffffffffffffffffffff169050816000806101000a81548173ffffffffffffffffffffffffffffffffffffffff021916908373ffffffffffffffffffffffffffffffffffffffff1602179055508173ffffffffffffffffffffffffffffffffffffffff168173ffffffffffffffffffffffffffffffffffffffff167f8be0079c531659141344cd1fd0a4f28419497f9722a3daafe3b4186f6b6457e060405160405180910390a35050565b6112b2611b0a565b6001600060146101000a81548160ff0219169083151502179055507f62e78cea01bee320cd4e420270b5ea74000d11b0c9f74754ebdbfc544b05a2586112f6610dd9565b604051611303919061274e565b60405180910390a1565b8173ffffffffffffffffffffffffffffffffffffffff168373ffffffffffffffffffffffffffffffffffffffff16141561137c576040517f08c379a000000000000000000000000000000000000000000000000000000000815260040161137390613239565b60405180910390fd5b80600260008573ffffffffffffffffffffffffffffffffffffffff1673ffffffffffffffffffffffffffffffffffffffff16815260200190815260200160002060008473ffffffffffffffffffffffffffffffffffffffff1673ffffffffffffffffffffffffffffffffffffffff16815260200190815260200160002060006101000a81548160ff0219169083151502179055508173ffffffffffffffffffffffffffffffffffffffff168373ffffffffffffffffffffffffffffffffffffffff167f17307eab39ab6107e8899845ad3d59bd9653f200f220920489ca2b5937696c318360405161146d9190612155565b60405180910390a3505050565b600073ffffffffffffffffffffffffffffffffffffffff168473ffffffffffffffffffffffffffffffffffffffff1614156114ea576040517f08c379a00000000000000000000000000000000000000000000000000000000081526004016114e190613072565b60405180910390fd5b60006114f4610dd9565b9050600061150185611b54565b9050600061150e85611b54565b905061151e8389898585896118cb565b60006001600088815260200190815260200160002060008a73ffffffffffffffffffffffffffffffffffffffff1673ffffffffffffffffffffffffffffffffffffffff168152602001908152602001600020549050858110156115b6576040517f08c379a00000000000000000000000000000000000000000000000000000000081526004016115ad90613104565b60405180910390fd5b8581036001600089815260200190815260200160002060008b73ffffffffffffffffffffffffffffffffffffffff1673ffffffffffffffffffffffffffffffffffffffff16815260200190815260200160002081905550856001600089815260200190815260200160002060008a73ffffffffffffffffffffffffffffffffffffffff1673ffffffffffffffffffffffffffffffffffffffff168152602001908152602001600020600082825461166d9190612de6565b925050819055508773ffffffffffffffffffffffffffffffffffffffff168973ffffffffffffffffffffffffffffffffffffffff168573ffffffffffffffffffffffffffffffffffffffff167fc3d58168c5ae7397731d063d5bbf3d657854427343f4c083240f7aacaa2d0f628a8a6040516116ea929190613259565b60405180910390a4611700848a8a86868a6118e1565b61170e848a8a8a8a8a611bce565b505050505050505050565b600073ffffffffffffffffffffffffffffffffffffffff168473ffffffffffffffffffffffffffffffffffffffff161415611789576040517f08c379a0000000000000000000000000000000000000000000000000000000008152600401611780906132f4565b60405180910390fd5b6000611793610dd9565b905060006117a085611b54565b905060006117ad85611b54565b90506117be836000898585896118cb565b846001600088815260200190815260200160002060008973ffffffffffffffffffffffffffffffffffffffff1673ffffffffffffffffffffffffffffffffffffffff168152602001908152602001600020600082825461181e9190612de6565b925050819055508673ffffffffffffffffffffffffffffffffffffffff16600073ffffffffffffffffffffffffffffffffffffffff168473ffffffffffffffffffffffffffffffffffffffff167fc3d58168c5ae7397731d063d5bbf3d657854427343f4c083240f7aacaa2d0f62898960405161189c929190613259565b60405180910390a46118b3836000898585896118e1565b6118c283600089898989611bce565b50505050505050565b6118d9868686868686611da6565b505050505050565b505050505050565b6119088473ffffffffffffffffffffffffffffffffffffffff16611f78565b15611ab9578373ffffffffffffffffffffffffffffffffffffffff1663bc197c8187878686866040518663ffffffff1660e01b815260040161194e959493929190613369565b6020604051808303816000875af192505050801561198a57506040513d601f19601f8201168201806040525081019061198791906133e6565b60015b611a3057611996613420565b806308c379a014156119f357506119ab613442565b806119b657506119f5565b806040517f08c379a00000000000000000000000000000000000000000000000000000000081526004016119ea9190612209565b60405180910390fd5b505b6040517f08c379a0000000000000000000000000000000000000000000000000000000008152600401611a279061354a565b60405180910390fd5b63bc197c8160e01b7bffffffffffffffffffffffffffffffffffffffffffffffffffffffff1916817bffffffffffffffffffffffffffffffffffffffffffffffffffffffff191614611ab7576040517f08c379a0000000000000000000000000000000000000000000000000000000008152600401611aae906135dc565b60405180910390fd5b505b505050505050565b611ac9610986565b611b08576040517f08c379a0000000000000000000000000000000000000000000000000000000008152600401611aff90613648565b60405180910390fd5b565b611b12610986565b15611b52576040517f08c379a0000000000000000000000000000000000000000000000000000000008152600401611b49906136b4565b60405180910390fd5b565b60606000600167ffffffffffffffff811115611b7357611b7261225d565b5b604051908082528060200260200182016040528015611ba15781602001602082028036833780820191505090505b5090508281600081518110611bb957611bb8612baf565b5b60200260200101818152505080915050919050565b611bed8473ffffffffffffffffffffffffffffffffffffffff16611f78565b15611d9e578373ffffffffffffffffffffffffffffffffffffffff1663f23a6e6187878686866040518663ffffffff1660e01b8152600401611c339594939291906136d4565b6020604051808303816000875af1925050508015611c6f57506040513d601f19601f82011682018060405250810190611c6c91906133e6565b60015b611d1557611c7b613420565b806308c379a01415611cd85750611c90613442565b80611c9b5750611cda565b806040517f08c379a0000000000000000000000000000000000000000000000000000000008152600401611ccf9190612209565b60405180910390fd5b505b6040517f08c379a0000000000000000000000000000000000000000000000000000000008152600401611d0c9061354a565b60405180910390fd5b63f23a6e6160e01b7bffffffffffffffffffffffffffffffffffffffffffffffffffffffff1916817bffffffffffffffffffffffffffffffffffffffffffffffffffffffff191614611d9c576040517f08c379a0000000000000000000000000000000000000000000000000000000008152600401611d93906135dc565b60405180910390fd5b505b505050505050565b611db4868686868686611f9b565b600073ffffffffffffffffffffffffffffffffffffffff168573ffffffffffffffffffffffffffffffffffffffff161415611e665760005b8351811015611e6457828181518110611e0857611e07612baf565b5b602002602001015160046000868481518110611e2757611e26612baf565b5b602002602001015181526020019081526020016000206000828254611e4c9190612de6565b9250508190555080611e5d90612c0d565b9050611dec565b505b600073ffffffffffffffffffffffffffffffffffffffff168473ffffffffffffffffffffffffffffffffffffffff161415611f705760005b8351811015611f6e576000848281518110611ebc57611ebb612baf565b5b602002602001015190506000848381518110611edb57611eda612baf565b5b6020026020010151905060006004600084815260200190815260200160002054905081811015611f40576040517f08c379a0000000000000000000000000000000000000000000000000000000008152600401611f37906137a0565b60405180910390fd5b818103600460008581526020019081526020016000208190555050505080611f6790612c0d565b9050611e9e565b505b505050505050565b6000808273ffffffffffffffffffffffffffffffffffffffff163b119050919050565b505050505050565b6000604051905090565b600080fd5b600080fd5b600073ffffffffffffffffffffffffffffffffffffffff82169050919050565b6000611fe282611fb7565b9050919050565b611ff281611fd7565b8114611ffd57600080fd5b50565b60008135905061200f81611fe9565b92915050565b6000819050919050565b61202881612015565b811461203357600080fd5b50565b6000813590506120458161201f565b92915050565b6000806040838503121561206257612061611fad565b5b600061207085828601612000565b925050602061208185828601612036565b9150509250929050565b61209481612015565b82525050565b60006020820190506120af600083018461208b565b92915050565b60007fffffffff0000000000000000000000000000000000000000000000000000000082169050919050565b6120ea816120b5565b81146120f557600080fd5b50565b600081359050612107816120e1565b92915050565b60006020828403121561212357612122611fad565b5b6000612131848285016120f8565b91505092915050565b60008115159050919050565b61214f8161213a565b82525050565b600060208201905061216a6000830184612146565b92915050565b600081519050919050565b600082825260208201905092915050565b60005b838110156121aa57808201518184015260208101905061218f565b838111156121b9576000848401525b50505050565b6000601f19601f8301169050919050565b60006121db82612170565b6121e5818561217b565b93506121f581856020860161218c565b6121fe816121bf565b840191505092915050565b6000602082019050818103600083015261222381846121d0565b905092915050565b60006020828403121561224157612240611fad565b5b600061224f84828501612036565b91505092915050565b600080fd5b7f4e487b7100000000000000000000000000000000000000000000000000000000600052604160045260246000fd5b612295826121bf565b810181811067ffffffffffffffff821117156122b4576122b361225d565b5b80604052505050565b60006122c7611fa3565b90506122d3828261228c565b919050565b600067ffffffffffffffff8211156122f3576122f261225d565b5b602082029050602081019050919050565b600080fd5b600061231c612317846122d8565b6122bd565b9050808382526020820190506020840283018581111561233f5761233e612304565b5b835b8181101561236857806123548882612036565b845260208401935050602081019050612341565b5050509392505050565b600082601f83011261238757612386612258565b5b8135612397848260208601612309565b91505092915050565b600080fd5b600067ffffffffffffffff8211156123c0576123bf61225d565b5b6123c9826121bf565b9050602081019050919050565b82818337600083830152505050565b60006123f86123f3846123a5565b6122bd565b905082815260208101848484011115612414576124136123a0565b5b61241f8482856123d6565b509392505050565b600082601f83011261243c5761243b612258565b5b813561244c8482602086016123e5565b91505092915050565b600080600080600060a0868803121561247157612470611fad565b5b600061247f88828901612000565b955050602061249088828901612000565b945050604086013567ffffffffffffffff8111156124b1576124b0611fb2565b5b6124bd88828901612372565b935050606086013567ffffffffffffffff8111156124de576124dd611fb2565b5b6124ea88828901612372565b925050608086013567ffffffffffffffff81111561250b5761250a611fb2565b5b61251788828901612427565b9150509295509295909350565b600067ffffffffffffffff82111561253f5761253e61225d565b5b602082029050602081019050919050565b600061256361255e84612524565b6122bd565b9050808382526020820190506020840283018581111561258657612585612304565b5b835b818110156125af578061259b8882612000565b845260208401935050602081019050612588565b5050509392505050565b600082601f8301126125ce576125cd612258565b5b81356125de848260208601612550565b91505092915050565b600080604083850312156125fe576125fd611fad565b5b600083013567ffffffffffffffff81111561261c5761261b611fb2565b5b612628858286016125b9565b925050602083013567ffffffffffffffff81111561264957612648611fb2565b5b61265585828601612372565b9150509250929050565b600081519050919050565b600082825260208201905092915050565b6000819050602082019050919050565b61269481612015565b82525050565b60006126a6838361268b565b60208301905092915050565b6000602082019050919050565b60006126ca8261265f565b6126d4818561266a565b93506126df8361267b565b8060005b838110156127105781516126f7888261269a565b9750612702836126b2565b9250506001810190506126e3565b5085935050505092915050565b6000602082019050818103600083015261273781846126bf565b905092915050565b61274881611fd7565b82525050565b6000602082019050612763600083018461273f565b92915050565b6127728161213a565b811461277d57600080fd5b50565b60008135905061278f81612769565b92915050565b600080604083850312156127ac576127ab611fad565b5b60006127ba85828601612000565b92505060206127cb85828601612780565b9150509250929050565b600080604083850312156127ec576127eb611fad565b5b60006127fa85828601612000565b925050602061280b85828601612000565b9150509250929050565b600080600080600060a0868803121561283157612830611fad565b5b600061283f88828901612000565b955050602061285088828901612000565b945050604061286188828901612036565b935050606061287288828901612036565b925050608086013567ffffffffffffffff81111561289357612892611fb2565b5b61289f88828901612427565b9150509295509295909350565b6000602082840312156128c2576128c1611fad565b5b60006128d084828501612000565b91505092915050565b600060ff82169050919050565b6128ef816128d9565b81146128fa57600080fd5b50565b60008135905061290c816128e6565b92915050565b6000806040838503121561292957612928611fad565b5b600061293785828601612036565b9250506020612948858286016128fd565b9150509250929050565b7f455243313135353a2061646472657373207a65726f206973206e6f742061207660008201527f616c6964206f776e657200000000000000000000000000000000000000000000602082015250565b60006129ae602a8361217b565b91506129b982612952565b604082019050919050565b600060208201905081810360008301526129dd816129a1565b9050919050565b7f4e487b7100000000000000000000000000000000000000000000000000000000600052602260045260246000fd5b60006002820490506001821680612a2b57607f821691505b60208210811415612a3f57612a3e6129e4565b5b50919050565b7f455243313135353a2063616c6c6572206973206e6f7420746f6b656e206f776e60008201527f6572206e6f7220617070726f7665640000000000000000000000000000000000602082015250565b6000612aa1602f8361217b565b9150612aac82612a45565b604082019050919050565b60006020820190508181036000830152612ad081612a94565b9050919050565b600081905092915050565b50565b6000612af2600083612ad7565b9150612afd82612ae2565b600082019050919050565b6000612b1382612ae5565b9150819050919050565b7f455243313135353a206163636f756e747320616e6420696473206c656e67746860008201527f206d69736d617463680000000000000000000000000000000000000000000000602082015250565b6000612b7960298361217b565b9150612b8482612b1d565b604082019050919050565b60006020820190508181036000830152612ba881612b6c565b9050919050565b7f4e487b7100000000000000000000000000000000000000000000000000000000600052603260045260246000fd5b7f4e487b7100000000000000000000000000000000000000000000000000000000600052601160045260246000fd5b6000612c1882612015565b91507fffffffffffffffffffffffffffffffffffffffffffffffffffffffffffffffff821415612c4b57612c4a612bde565b5b600182019050919050565b7f4f776e61626c653a206e6577206f776e657220697320746865207a65726f206160008201527f6464726573730000000000000000000000000000000000000000000000000000602082015250565b6000612cb260268361217b565b9150612cbd82612c56565b604082019050919050565b60006020820190508181036000830152612ce181612ca5565b9050919050565b7f416d6f756e74206f66207469636b657473206d7573742062652067726561746560008201527f72207468616e20302e0000000000000000000000000000000000000000000000602082015250565b6000612d4460298361217b565b9150612d4f82612ce8565b604082019050919050565b60006020820190508181036000830152612d7381612d37565b9050919050565b7f43616e6e6f74206d696e74206d6f7265207468616e2033207469636b6574732e600082015250565b6000612db060208361217b565b9150612dbb82612d7a565b602082019050919050565b60006020820190508181036000830152612ddf81612da3565b9050919050565b6000612df182612015565b9150612dfc83612015565b9250827fffffffffffffffffffffffffffffffffffffffffffffffffffffffffffffffff03821115612e3157612e30612bde565b5b828201905092915050565b7f6e6f7420656e6f756768207469636b6574730000000000000000000000000000600082015250565b6000612e7260128361217b565b9150612e7d82612e3c565b602082019050919050565b60006020820190508181036000830152612ea181612e65565b9050919050565b7f4f6e6c792033207469636b657473207065722077616c6c65742e000000000000600082015250565b6000612ede601a8361217b565b9150612ee982612ea8565b602082019050919050565b60006020820190508181036000830152612f0d81612ed1565b9050919050565b6000612f1f82612015565b9150612f2a83612015565b9250817fffffffffffffffffffffffffffffffffffffffffffffffffffffffffffffffff0483118215151615612f6357612f62612bde565b5b828202905092915050565b7f455243313135353a2069647320616e6420616d6f756e7473206c656e6774682060008201527f6d69736d61746368000000000000000000000000000000000000000000000000602082015250565b6000612fca60288361217b565b9150612fd582612f6e565b604082019050919050565b60006020820190508181036000830152612ff981612fbd565b9050919050565b7f455243313135353a207472616e7366657220746f20746865207a65726f20616460008201527f6472657373000000000000000000000000000000000000000000000000000000602082015250565b600061305c60258361217b565b915061306782613000565b604082019050919050565b6000602082019050818103600083015261308b8161304f565b9050919050565b7f455243313135353a20696e73756666696369656e742062616c616e636520666f60008201527f72207472616e7366657200000000000000000000000000000000000000000000602082015250565b60006130ee602a8361217b565b91506130f982613092565b604082019050919050565b6000602082019050818103600083015261311d816130e1565b9050919050565b6000604082019050818103600083015261313e81856126bf565b9050818103602083015261315281846126bf565b90509392505050565b7f4f776e61626c653a2063616c6c6572206973206e6f7420746865206f776e6572600082015250565b600061319160208361217b565b915061319c8261315b565b602082019050919050565b600060208201905081810360008301526131c081613184565b9050919050565b7f455243313135353a2073657474696e6720617070726f76616c2073746174757360008201527f20666f722073656c660000000000000000000000000000000000000000000000602082015250565b600061322360298361217b565b915061322e826131c7565b604082019050919050565b6000602082019050818103600083015261325281613216565b9050919050565b600060408201905061326e600083018561208b565b61327b602083018461208b565b9392505050565b7f455243313135353a206d696e7420746f20746865207a65726f2061646472657360008201527f7300000000000000000000000000000000000000000000000000000000000000602082015250565b60006132de60218361217b565b91506132e982613282565b604082019050919050565b6000602082019050818103600083015261330d816132d1565b9050919050565b600081519050919050565b600082825260208201905092915050565b600061333b82613314565b613345818561331f565b935061335581856020860161218c565b61335e816121bf565b840191505092915050565b600060a08201905061337e600083018861273f565b61338b602083018761273f565b818103604083015261339d81866126bf565b905081810360608301526133b181856126bf565b905081810360808301526133c58184613330565b90509695505050505050565b6000815190506133e0816120e1565b92915050565b6000602082840312156133fc576133fb611fad565b5b600061340a848285016133d1565b91505092915050565b60008160e01c9050919050565b600060033d111561343f5760046000803e61343c600051613413565b90505b90565b600060443d1015613452576134d5565b61345a611fa3565b60043d036004823e80513d602482011167ffffffffffffffff821117156134825750506134d5565b808201805167ffffffffffffffff8111156134a057505050506134d5565b80602083010160043d0385018111156134bd5750505050506134d5565b6134cc8260200185018661228c565b82955050505050505b90565b7f455243313135353a207472616e7366657220746f206e6f6e204552433131353560008201527f526563656976657220696d706c656d656e746572000000000000000000000000602082015250565b600061353460348361217b565b915061353f826134d8565b604082019050919050565b6000602082019050818103600083015261356381613527565b9050919050565b7f455243313135353a204552433131353552656365697665722072656a6563746560008201527f6420746f6b656e73000000000000000000000000000000000000000000000000602082015250565b60006135c660288361217b565b91506135d18261356a565b604082019050919050565b600060208201905081810360008301526135f5816135b9565b9050919050565b7f5061757361626c653a206e6f7420706175736564000000000000000000000000600082015250565b600061363260148361217b565b915061363d826135fc565b602082019050919050565b6000602082019050818103600083015261366181613625565b9050919050565b7f5061757361626c653a2070617573656400000000000000000000000000000000600082015250565b600061369e60108361217b565b91506136a982613668565b602082019050919050565b600060208201905081810360008301526136cd81613691565b9050919050565b600060a0820190506136e9600083018861273f565b6136f6602083018761273f565b613703604083018661208b565b613710606083018561208b565b81810360808301526137228184613330565b90509695505050505050565b7f455243313135353a206275726e20616d6f756e74206578636565647320746f7460008201527f616c537570706c79000000000000000000000000000000000000000000000000602082015250565b600061378a60288361217b565b91506137958261372e565b604082019050919050565b600060208201905081810360008301526137b98161377d565b905091905056fea2646970667358221220cd36fda7e7406c41c24f1d4f73aa5a9d0a8b98e2ee07d38c7d70831bf4d6492764736f6c634300080c0033",
  "immutableReferences": {},
  "source": "// SPDX-License-Identifier: MIT\npragma solidity ^0.8.0;\nimport \"@openzeppelin/contracts/token/ERC1155/IERC1155.sol\";\nimport \"@openzeppelin/contracts/access/Ownable.sol\";\nimport '@openzeppelin/contracts/security/Pausable.sol';\nimport '@openzeppelin/contracts/token/ERC1155/ERC1155.sol';\nimport '@openzeppelin/contracts/token/ERC1155/extensions/ERC1155Supply.sol';\n\ncontract Event is Ownable, Pausable, ERC1155, ERC1155Supply{\n    string baseURI;\n    string name_;\n    uint256 amountOfTickets;\n    uint256 costPerTicket;\n\n    constructor(\n        string memory _name,\n        string memory _uri,\n        uint256 _amountOfTickets,\n        uint256 _costPerTicket) ERC1155(_uri) {\n        baseURI = _uri;\n        amountOfTickets = _amountOfTickets;\n        costPerTicket = _costPerTicket;\n        name_ = _name;\n    }\n\n    function pause() external onlyOwner {\n        _pause();\n    }\n\n    function unpause() external onlyOwner {\n        _unpause();\n    }\n\n    function name() public view returns (string memory) {\n        return name_;\n    }\n\n    function _beforeTokenTransfer(\n        address operator,\n        address from,\n        address to,\n        uint256[] memory ids,\n        uint256[] memory amounts,\n        bytes memory data\n    ) internal virtual override(ERC1155, ERC1155Supply) {\n        super._beforeTokenTransfer(operator, from, to, ids, amounts, data);\n    }\n\n    function mint(uint256 _amount, uint8 _id) public payable {\n        require(_amount > 0, \"Amount of tickets must be greater than 0.\");\n        require(_amount <= 3, \"Cannot mint more than 3 tickets.\"); // can customize this per host preference\n        uint256 supply = totalSupply(_id);\n        require(supply + _amount <= amountOfTickets, \"not enough tickets\");\n        require(balanceOf(msg.sender, _id) <= 2, \"Only 3 tickets per wallet.\"); // can customize\n        require(msg.value >= costPerTicket * _amount);\n\n        _mint(msg.sender, 0, _amount, \" \");\n    }\n\n    function withdraw() public payable onlyOwner {\n        (bool success, ) = payable(msg.sender).call{\n            value: address(this).balance\n        }(\"\");\n        require(success);\n    }\n}\n\ncontract CreateEvent {\n    Event[] public events;\n\n    function create(\n        string memory _name,\n        string memory _uri,\n        uint256 _amountTickets,\n        uint256 _costPerTicket) public {\n        Event e = new Event(_name, _uri, _amountTickets, _costPerTicket);\n        events.push(e);\n    }\n\n}",
  "sourcePath": "/Users/jaydendavila/Desktop/socialtoken/Client/contracts/Event.sol",
  "compiler": {
    "name": "solc",
    "version": "0.8.12+commit.f00d7308.Emscripten.clang"
  },
  "schemaVersion": "3.4.6",
  "updatedAt": "2022-08-02T02:31:49.568Z",
  "devdoc": {
    "kind": "dev",
    "methods": {
      "balanceOf(address,uint256)": {
        "details": "See {IERC1155-balanceOf}. Requirements: - `account` cannot be the zero address."
      },
      "balanceOfBatch(address[],uint256[])": {
        "details": "See {IERC1155-balanceOfBatch}. Requirements: - `accounts` and `ids` must have the same length."
      },
      "exists(uint256)": {
        "details": "Indicates whether any token exist with a given id, or not."
      },
      "isApprovedForAll(address,address)": {
        "details": "See {IERC1155-isApprovedForAll}."
      },
      "owner()": {
        "details": "Returns the address of the current owner."
      },
      "paused()": {
        "details": "Returns true if the contract is paused, and false otherwise."
      },
      "renounceOwnership()": {
        "details": "Leaves the contract without owner. It will not be possible to call `onlyOwner` functions anymore. Can only be called by the current owner. NOTE: Renouncing ownership will leave the contract without an owner, thereby removing any functionality that is only available to the owner."
      },
      "safeBatchTransferFrom(address,address,uint256[],uint256[],bytes)": {
        "details": "See {IERC1155-safeBatchTransferFrom}."
      },
      "safeTransferFrom(address,address,uint256,uint256,bytes)": {
        "details": "See {IERC1155-safeTransferFrom}."
      },
      "setApprovalForAll(address,bool)": {
        "details": "See {IERC1155-setApprovalForAll}."
      },
      "supportsInterface(bytes4)": {
        "details": "See {IERC165-supportsInterface}."
      },
      "totalSupply(uint256)": {
        "details": "Total amount of tokens in with a given id."
      },
      "transferOwnership(address)": {
        "details": "Transfers ownership of the contract to a new account (`newOwner`). Can only be called by the current owner."
      },
      "uri(uint256)": {
        "details": "See {IERC1155MetadataURI-uri}. This implementation returns the same URI for *all* token types. It relies on the token type ID substitution mechanism https://eips.ethereum.org/EIPS/eip-1155#metadata[defined in the EIP]. Clients calling this function must replace the `\\{id\\}` substring with the actual token type ID."
      }
    },
    "version": 1
  },
  "userdoc": {
    "kind": "user",
    "methods": {},
    "version": 1
  }
}